:100000000C942A000C94990C0C94CC0C0C94FF0CBE
:100010000C9447000C9447000C9443090C9447003F
:100020000C9447000C9447000C94530B0C94E60A74
:100030000C9447000C9447000C9447000C94470024
:100040000C9447000C9447000C9447000C94470014
:100050000C94470011241FBECFE5D8E0DEBFCDBF12
:1000600011E0A0E6B0E0E0EBFBE302C005900D92EA
:10007000AA38B107D9F711E0AAE8B1E001C01D9292
:10008000AC3AB107E1F70E947A1A0C94D61D0C9491
:100090000000EF92FF920F931F937B018C0120E0F1
:1000A00030E040E05FE40E94F50388238CF0C80153
:1000B000B70120E030E040E05FE40E94C1010E940F
:1000C00055049B01AC01205030404040504806C0D0
:1000D000C801B7010E9455049B01AC01B901CA01D6
:1000E0001F910F91FF90EF900895A0E0B0E0EBE733
:1000F000F0E00C94231DDC012B01FA019C9192305D
:1001000008F439C1EB018881823008F433C194309E
:1001100069F4843009F02FC111969C91119789815F
:10012000981709F428C1A7E7B0E025C1843009F485
:1001300021C18230A9F4923009F01DC19A01AD01AC
:1001400088E0EA010990AE01E90109929E0181501F
:10015000C1F7E201898111969C918923818308C1AD
:10016000923009F407C112962D903C901397EB0141
:100170008A819B811496AD90BD90CD90DC901797AD
:10018000EC80FD800E811F819101281B390BB90184
:1001900037FF04C066277727621B730B6032710537
:1001A0000CF061C0121613066CF537014801062EDB
:1001B00004C096948794779467940A94D2F721E0C8
:1001C00030E040E050E004C0220F331F441F551FB1
:1001D0006A95D2F721503040404050402E213F21B7
:1001E00040235123211531054105510521F021E01E
:1001F00030E040E050E079018A01E628F72808293C
:1002000019293CC0232BD1F1260E371E350146019A
:10021000062E04C096948794779467940A94D2F734
:1002200021E030E040E050E004C0220F331F441FC3
:10023000551F6A95D2F721503040404050402A2146
:100240003B214C215D21211531054105510521F04E
:1002500021E030E040E050E059016A01A628B728CB
:10026000C828D9280BC0821593052CF01C01AA249C
:10027000BB24650103C0EE24FF24870111969C91E5
:10028000D20111968C91981709F445C0992339F041
:10029000A80197012A193B094C095D0906C0A6016E
:1002A00095012E193F09400B510B57FD08C01182D3
:1002B0003382228224833583468357831DC081E0A5
:1002C00081833382228288279927DC01821B930B4A
:1002D000A40BB50B84839583A683B7830DC0220F2F
:1002E000331F441F551F24833583468357838281E0
:1002F000938101979383828324813581468157813D
:10030000DA01C9010197A109B1098F5F9F4FAF4F72
:10031000BF4328F30BC0918333822282EA0CFB1C7B
:100320000C1D1D1DE482F5820683178383E0808304
:10033000248135814681578157FF1AC0C901AA27F8
:1003400097FDA095BA2F81709070A070B0705695EF
:10035000479537952795822B932BA42BB52B848318
:100360009583A683B7838281938101969383828349
:10037000DF0101C0D201CD01CDB7DEB7E2E10C94BF
:100380003F1DA0E2B0E0E7ECF1E00C942F1D698383
:100390007A838B839C832D833E834F835887E9E048
:1003A000EE2EF12CEC0EFD1ECE010196B7010E943F
:1003B00046068E010F5E1F4FCE010596B8010E94C2
:1003C00046068A8991E089278A8BC701B801AE0168
:1003D000475E5F4F0E9475000E947105A096E6E09F
:1003E0000C944B1DA0E2B0E0E8EFF1E00C942F1D5F
:1003F00069837A838B839C832D833E834F835887C5
:10040000F9E0EF2EF12CEC0EFD1ECE010196B701A6
:100410000E9446068E010F5E1F4FCE010596B80161
:100420000E944606C701B801AE01475E5F4F0E94B9
:1004300075000E947105A096E6E00C944B1DA0E2A9
:10044000B0E0E5E2F2E00C94231D69837A838B83AC
:100450009C832D833E834F835887CE010196BE0136
:10046000675F7F4F0E944606CE010596BE016F5E14
:100470007F4F0E9446069985923088F089898230A4
:10048000C8F0943019F4823051F404C0843029F457
:10049000923081F487E790E0C6C0923049F420E0C2
:1004A0009A858A89981321E02A87CE010996BBC0D4
:1004B000823049F420E09A858A89981321E02A8BBA
:1004C000CE014196B0C02D843E844F8458886D88FB
:1004D0007E888F88988CEE24FF248701AA24BB2471
:1004E000650140E050E060E070E0E0E0F0E0C10174
:1004F00081709070892BE9F0E60CF71C081D191D1E
:100500009A01AB012A0D3B1D4C1D5D1D80E090E062
:10051000A0E0B0E0E614F7040805190520F481E036
:1005200090E0A0E0B0E0BA01A901480F591F6A1F8E
:100530007B1FAA0CBB1CCC1CDD1C97FE08C081E0F5
:1005400090E0A0E0B0E0A82AB92ACA2ADB2A3196B6
:10055000E032F10549F0660C771C881C991C569412
:10056000479437942794C3CFFA85EA892B893C892D
:100570008B859C85280F391F2E5F3F4F17C0CA01FE
:1005800081709070892B61F016950795F794E79428
:1005900080E090E0A0E0B0E8E82AF92A0A2B1B2BC3
:1005A00076956795579547952F5F3F4F77FDE7CF36
:1005B0000CC0440F551F661F771F17FD4160EE0CDE
:1005C000FF1C001F111F21503040403090E05907A0
:1005D00090E0690790E4790760F32B8F3C8FDB0193
:1005E000CA018F779070A070B07080349105A1051A
:1005F000B10561F447FD0AC0E114F10401051105DC
:1006000029F0405C5F4F6F4F7F4F40781A8EFE1786
:1006100011F081E08A8F4D8F5E8F6F8F78A383E01A
:10062000898FCE0149960E947105A096E2E10C9453
:100630003F1DA8E1B0E0EFE1F3E00C942B1D6983CE
:100640007A838B839C832D833E834F835887B9E0C5
:10065000EB2EF12CEC0EFD1ECE010196B7010E948F
:1006600046068E010F5E1F4FCE010596B8010E940F
:1006700046062985223008F47EC03989323010F4CC
:10068000B8017CC08A859A8989278A87243011F02D
:10069000223031F4231709F06EC067E770E06EC0B6
:1006A000343039F41D861E861F86188A1C861B86E8
:1006B00004C0323021F484E08987B7015FC02B8504
:1006C0003C858B899C89281B390B3C872B87ED84C3
:1006D000FE840F851889AD88BE88CF88D88CEA142F
:1006E000FB040C051D0540F4EE0CFF1C001F111F40
:1006F000215030403C872B8720E030E040E050E044
:1007000080E090E0A0E0B0E460E070E0EA14FB0478
:100710000C051D0540F0282B392B4A2B5B2BEA18C2
:10072000FB080C091D09B695A79597958795EE0CC2
:10073000FF1C001F111F6F5F7F4F6F31710531F775
:10074000DA01C9018F779070A070B0708034910584
:10075000A105B10561F427FD0AC0E114F10401050A
:10076000110529F0205C3F4F4F4F5F4F20782D87B8
:100770003E874F87588BBE01675F7F4FCB010E943A
:1007800071056896EAE00C94471DA8E1B0E0EBEC37
:10079000F3E00C942F1D69837A838B839C832D83D4
:1007A0003E834F83588789E0E82EF12CEC0EFD1E26
:1007B000CE010196B7010E9446068E010F5E1F4FC3
:1007C000CE010596B8010E9446068985823040F028
:1007D0008989823028F0C701B8010E94BE0601C095
:1007E0008FEF6896E6E00C944B1DA8E1B0E0EBEFCC
:1007F000F3E00C942F1D69837A838B839C832D8374
:100800003E834F83588789E0E82EF12CEC0EFD1EC5
:10081000CE010196B7010E9446068E010F5E1F4F62
:10082000CE010596B8010E9446068985823040F0C7
:100830008989823028F0C701B8010E94BE0601C034
:100840008FEF6896E6E00C944B1DA8E1B0E0EBE278
:10085000F4E00C942F1D69837A838B839C832D8312
:100860003E834F83588789E0E82EF12CEC0EFD1E65
:10087000CE010196B7010E9446068E010F5E1F4F02
:10088000CE010596B8010E9446068985823040F067
:100890008989823028F0C701B8010E94BE0601C0D4
:1008A00081E06896E6E00C944B1DACE0B0E0EBE52F
:1008B000F4E00C94331D69837A838B839C83CE018F
:1008C0000196BE016B5F7F4F0E9446068D8182308C
:1008D00061F1823050F1843021F48E81882351F10E
:1008E0002EC02F81388537FD20C06E812F31310514
:1008F0001CF06623F9F023C08EE190E0821B930B7D
:1009000029853A854B855C8504C056954795379572
:1009100027958A95D2F76623B1F05095409530958A
:1009200021953F4F4F4F5F4F0EC020E030E040E039
:1009300050E009C02FEF3FEF4FEF5FE704C020E02A
:1009400030E040E050E8B901CA012C96E2E00C9496
:100950004F1DA8E0B0E0EFEAF4E00C942B1D7B0102
:100960008C01611571058105910519F482E0898377
:1009700060C083E089838EE1C82ED12CDC82CB82DB
:10098000ED82FE820F831887C801B7010E942205FD
:10099000FC013197F7FF3BC0222733272E1B3F0B6B
:1009A00057016801022E04C0D694C794B794A79447
:1009B0000A94D2F740E050E060E070E081E090E01F
:1009C000A0E0B0E004C0880F991FAA1FBB1F2A95A2
:1009D000D2F70197A109B1098E219F21A023B1234C
:1009E0000097A105B10521F041E050E060E070E022
:1009F0004A295B296C297D294D835E836F83788723
:100A00008EE190E08E1B9F0B9C838B8312C03097EE
:100A100081F00E2E04C0EE0CFF1C001F111F0A9463
:100A2000D2F7ED82FE820F831887CE1ADF0ADC82AE
:100A3000CB821A82CE0101960E9471052896EAE0C7
:100A40000C94471DEF92FF920F931F937B018C0133
:100A500080E0E81680E0F80681E0080780E01807EB
:100A600088F48FEFE816F1040105110531F028F044
:100A700088E090E0A0E0B0E017C080E090E0A0E067
:100A8000B0E012C080E0E81680E0F80680E00807D9
:100A900081E0180728F088E190E0A0E0B0E004C011
:100AA00080E190E0A0E0B0E020E230E040E050E003
:100AB000281B390B4A0B5B0B04C016950795F7945E
:100AC000E7948A95D2F7F701E158FF4F8081281B00
:100AD000310941095109C9011F910F91FF90EF9010
:100AE0000895DF92EF92FF920F931F93FC01E48031
:100AF000F58006811781D1808081823048F480E0C2
:100B000090E0A0E1B0E0E82AF92A0A2B1B2BA5C04F
:100B1000843009F49FC0823021F4EE24FF24870141
:100B200005C0E114F1040105110519F4E0E0F0E05D
:100B300096C0628173819FEF623879070CF05BC0C9
:100B400022E83FEF261B370B2A3131052CF020E03D
:100B500030E040E050E02AC0B801A701022E04C0F6
:100B600076956795579547950A94D2F781E090E07E
:100B7000A0E0B0E004C0880F991FAA1FBB1F2A95F0
:100B8000D2F70197A109B1098E219F21A023B1239A
:100B90000097A105B10521F081E090E0A0E0B0E070
:100BA0009A01AB01282B392B4A2B5B2BDA01C901A7
:100BB0008F779070A070B07080349105A105B10559
:100BC00039F427FF09C0205C3F4F4F4F5F4F04C0EF
:100BD000215C3F4F4F4F5F4FE0E0F0E02030A0E05E
:100BE0003A07A0E04A07A0E45A0710F0E1E0F0E07D
:100BF00079018A0127C06038710564F5FB01E1586D
:100C0000FF4FD801C7018F779070A070B07080340B
:100C10009105A105B10539F4E7FE0DC080E490E02F
:100C2000A0E0B0E004C08FE390E0A0E0B0E0E80E08
:100C3000F91E0A1F1B1F17FF05C016950795F7948D
:100C4000E794319687E016950795F794E7948A958F
:100C5000D1F705C0EE24FF248701EFEFF0E06E2FFF
:100C6000679566276795902F9F77D794DD24D79453
:100C70008E2F8695492F462B582F5D29B701CA0123
:100C80001F910F91FF90EF90DF900895FC01DB0121
:100C9000408151812281622F6F7770E0221F2227CD
:100CA000221F9381892F880F822B282F30E0991FD4
:100CB0009927991F11969C93119721153105A9F534
:100CC000411551056105710511F482E037C082E8D4
:100CD0009FEF13969C938E9312979A01AB0167E056
:100CE000220F331F441F551F6A95D1F783E08C9361
:100CF0000DC0220F331F441F551F12968D919C91DA
:100D00001397019713969C938E931297203080E04F
:100D1000380780E0480780E4580758F314962D936D
:100D20003D934D935C93179708952F3F310579F4C8
:100D3000411551056105710519F484E08C930895FE
:100D400064FF03C081E08C9312C01C9210C02F5727
:100D5000304013963C932E93129783E08C9387E058
:100D6000440F551F661F771F8A95D1F7706414963C
:100D70004D935D936D937C93179708951F93DC01BA
:100D8000FB019C91923008F447C08081823008F4C6
:100D900043C0943051F411961C91843099F58181AF
:100DA000682F70E0611B71093FC0843021F09230E0
:100DB00031F48230B9F18181882389F12DC01196F7
:100DC0001C9111978230F1F081811817D9F4129695
:100DD0002D913C911397828193818217930794F010
:100DE00028173907BCF014968D919D910D90BC91F8
:100DF000A02D2481358146815781281739074A075C
:100E00005B0718F4112341F00AC082179307A40767
:100E1000B50740F4112319F061E070E005C06FEFF1
:100E20007FEF02C060E070E0CB011F910895DF9377
:100E3000CF93CDB7DEB788E260E00E94320D89E241
:100E400061E00E94320DAAE2B0E0EAE2F0E08081C7
:100E500080618C93AAE2B0E0EAE2F0E080818860F1
:100E60008C93A0E4B0E0E0E4F0E0808186688C93AD
:100E7000E9E2F0E087E68083A0E4B0E0E0E4F0E0BF
:100E800080818F7E8C93A0E4B0E0E0E4F0E080818C
:100E90008F7D8C93A0E4B0E0E0E4F0E08081877F78
:100EA0008C93CF91DF910895DF93CF9300D000D042
:100EB0000F92CDB7DEB78D8319821A821B821C82F6
:100EC000ECE2F0E08D81808318C089819A81AB814A
:100ED000BC810196A11DB11D89839A83AB83BC831C
:100EE000EBE2F0E080818295869586958370882F6D
:100EF00090E081709070882361F489819A81AB8140
:100F0000BC81803824E892072EE1A20720E0B207D6
:100F1000E0F20F900F900F900F900F90CF91DF9114
:100F20000895DF93CF9300D000D00F92CDB7DEB7F6
:100F30001D8219821A821B821C8213C089819A81A8
:100F4000AB81BC810196A11DB11D89839A83AB83BE
:100F5000BC83EBE2F0E08081881F8827881F813006
:100F600061F089819A81AB81BC81803824E8920745
:100F70002EE1A20720E0B20708F3ECE2F0E0808166
:100F80008D838D810F900F900F900F900F90CF91C8
:100F9000DF910895DF93CF93CDB7DEB765970FB696
:100FA000F894DEBF0FBECDBF9D8B8C8B1B8A1F8636
:100FB000188A198A1A8AEC89FD8910828C899D8980
:100FC000FC013196108214C08F859889A989BA894D
:100FD0000196A11DB11D8F87988BA98BBA8BEBE26F
:100FE000F0E08081881F8827881F813009F48EC037
:100FF0008F859889A989BA89803824E892072EE1DB
:10100000A20720E0B20700F381C08B89282F30E0CF
:101010008C899D89DC01A20FB31FECE2F0E0808196
:101020008C9380E090E0A8ECB2E48B879C87AD873E
:10103000BE876B857C858D859E8520E030E04AE704
:1010400055E40E941F02DC01CB018F839887A9879A
:10105000BA876F81788589859A8520E030E040E8FD
:101060005FE30E94250488232CF481E090E09E83B6
:101070008D833FC06F81788589859A8520E03FEF19
:101080004FE757E40E94C50318164CF56B857C8525
:101090008D859E8520E030E040E251E40E941F02F1
:1010A000DC01CB01BC01CD010E944900DC01CB0178
:1010B0009E838D830FC080E991E09C838B838B811D
:1010C0009C810197F1F79C838B838D819E81019791
:1010D0009E838D838D819E81009769F714C06F81F7
:1010E000788589859A850E944900DC01CB019E8321
:1010F0008D838D819E819A83898389819A810197CD
:10110000F1F79A8389838B898F5F8B8BEBE2F0E019
:10111000808188230CF479CF8C899D89FC013296DB
:10112000108265960FB6F894DEBF0FBECDBFCF918B
:10113000DF910895DF93CF93CDB7DEB7AFE4B0E092
:10114000EFE4F0E080818E7F8C93AFE4B0E0EFE4D9
:10115000F0E080818D7F8C93AEE4B0E0EEE4F0E0CF
:101160008081877F8C93AEE4B0E0EEE4F0E0808194
:101170008F7E8C93AEE4B0E0EEE4F0E080818E7F71
:101180008C93AEE4B0E0EEE4F0E080818D7F8C9350
:10119000AEE4B0E0EEE4F0E0808184608C93CF9127
:1011A000DF910895DF93CF93CDB7DEB7AEE4B0E023
:1011B000EEE4F0E0808180648C93CF91DF9108951C
:1011C000DF93CF9300D00F92CDB7DEB789838981AB
:1011D000282F30E03B832A838A819B81009769F026
:1011E0002A813B812130310579F4AEE4B0E0EEE4B0
:1011F000F0E0808180648C9307C0AEE4B0E0EEE460
:10120000F0E080818F7B8C930F900F900F90CF91A7
:10121000DF910895DF93CF9300D0CDB7DEB79A83E7
:10122000898389819A8190938B0180938A010F90A1
:101230000F90CF91DF910895DF93CF93CDB7DEB7B5
:10124000E6E4F0E080819181CF91DF910895DF9312
:10125000CF93CDB7DEB7A9E5B0E0E9E5F0E0808156
:1012600080628C93CF91DF910895DF93CF93CDB7B8
:10127000DEB7A9E5B0E0E9E5F0E080818F7D8C93F1
:10128000CF91DF9108951F920F920FB60F92112404
:101290002F933F934F935F936F937F938F939F937E
:1012A000AF93BF93EF93FF93DF93CF93CDB7DEB7A9
:1012B00080918A0190918B01009729F0E0918A0139
:1012C000F0918B010995CF91DF91FF91EF91BF9143
:1012D000AF919F918F917F916F915F914F913F91CE
:1012E0002F910F900FBE0F901F901895DF93CF9303
:1012F000CDB7DEB7A3E5B0E0E3E5F0E08081806440
:101300008C93A3E5B0E0E3E5F0E0808188608C9306
:10131000A3E5B0E0E3E5F0E080818F7C8C93A3E56A
:10132000B0E0E3E5F0E0808180628C93CF91DF91C3
:101330000895DF93CF93CDB7DEB76B970FB6F894D0
:10134000DEBF0FBECDBF6B8B7C8B8D8B9E8BCE019A
:101350000996988F8F8BEFE7F1E0FA8FE98FFAE02B
:10136000FB8FE98DFA8D0080898D9A8D01969A8F79
:10137000898FEF89F88D00828F89988D0196988FDB
:101380008F8B9B8D91509B8FEB8DEE2351F789892D
:101390009A89CC01A0E0B0E0BC01CD010E94A90473
:1013A000DC01CB01BC01CD0120E030E040E851E49C
:1013B0000E941903DC01CB018D839E83AF83B88724
:1013C0008B899C89AD89BE8928EE33E040E050E0EE
:1013D000BC01CD010E94941CDC01CB01BC01CD01FC
:1013E0000E94A904DC01CB01BC01CD012D813E810D
:1013F0004F8158850E941903DC01CB01BC01CD014E
:101400000E944900DC01CB0189839A83AB83BC83B2
:101410006B960FB6F894DEBF0FBECDBFCF91DF91B4
:101420000895DF93CF93CDB7DEB7A3E5B0E0E3E552
:10143000F0E08081887F8C93A3E5B0E0E3E5F0E005
:10144000808185608C93CF91DF910895DF93CF9356
:10145000CDB7DEB7A3E5B0E0E3E5F0E08081887FBB
:101460008C93CF91DF910895DF93CF9300D00F92AB
:10147000CDB7DEB79A8389836B838B81882319F07C
:101480008B81813061F48B81882F90E0880F991FC8
:10149000FC01E457FE4F89819A81918380830F90EC
:1014A0000F900F90CF91DF910895DF93CF9300D0ED
:1014B0000F92CDB7DEB789838981282F30E03B8337
:1014C0002A838A819B81009731F02A813B812130D8
:1014D000310549F00FC0A9E5B0E0E9E5F0E0808111
:1014E00081608C9307C0A9E5B0E0E9E5F0E0808178
:1014F00082608C930F900F900F90CF91DF910895A1
:10150000DF93CF9300D00F92CDB7DEB78983898167
:10151000282F30E03B832A838A819B81009731F01A
:101520002A813B812130310549F00FC0A9E5B0E0A7
:10153000E9E5F0E080818E7F8C9307C0A9E5B0E0FB
:10154000E9E5F0E080818D7F8C930F900F900F90F4
:10155000CF91DF910895DF93CF9300D000D00F9209
:10156000CDB7DEB789838CE590E09D838C8389813C
:10157000882F90E0982F882724E630E0B9010E9458
:10158000BF1CCB0101979B838A83EA81FB81FF23E8
:101590003CF48A819B81909581959F4F9B838A83A0
:1015A0008A81EC81FD8180830F900F900F900F90C6
:1015B0000F90CF91DF910895DF93CF930F92CDB726
:1015C000DEB789830F90CF91DF9108951F920F921C
:1015D0000FB60F9211242F933F934F935F936F9306
:1015E0007F938F939F93AF93BF93EF93FF93DF937B
:1015F000CF93CDB7DEB78091990190919A01A091D8
:101600009B01B0919C010196A11DB11D8093990190
:1016100090939A01A0939B01B0939C012091990112
:1016200030919A0140919B0150919C0180919001D1
:1016300090919101A0919201B091930128173907DF
:101640004A075B07E9F480919401882331F0E2E5D1
:10165000F0E0809194018195808380918C0190913C
:101660008D01009729F0E0918C01F0918D01099591
:101670001092990110929A0110929B0110929C0174
:10168000CF91DF91FF91EF91BF91AF919F918F919A
:101690007F916F915F914F913F912F910F900FBE6E
:1016A0000F901F9018951F920F920FB60F92112452
:1016B0002F933F934F935F936F937F938F939F935A
:1016C000AF93BF93EF93FF93DF93CF93CDB7DEB785
:1016D00080919D0190919E01A0919F01B091A001E8
:1016E0000196A11DB11D80939D0190939E01A09331
:1016F0009F01B093A00120919D0130919E014091E6
:101700009F015091A0018091950190919601A09127
:101710009701B0919801281739074A075B0799F498
:1017200080918E0190918F01009729F0E0918E01B8
:10173000F0918F01099510929D0110929E011092D7
:101740009F011092A001CF91DF91FF91EF91BF9186
:10175000AF919F918F917F916F915F914F913F9149
:101760002F910F900FBE0F901F901895DF93CF937E
:10177000CDB7DEB77894CF91DF910895DF93CF9303
:10178000CDB7DEB7F894CF91DF910895DF93CF9373
:1017900000D000D0CDB7DEB789836A83ABE5B0E077
:1017A000EBE5F0E08081482F8981282F30E081E04F
:1017B00090E002C0880F991F2A95E2F7842B8C9342
:1017C0008981282F30E03C832B838B819C8186305C
:1017D000910559F02B813C8127303105B1F08B8187
:1017E0009C818530910541F144C0A5E5B0E0E5E577
:1017F000F0E080818C7F8C93A5E5B0E0E5E5F0E03A
:1018000090818A81892B8C9334C0A5E5B0E0E5E511
:10181000F0E08081837F8C93A5E5B0E0E5E5F0E022
:101820008081282F8A81882F90E0880F991F880F48
:10183000991F822B8C931DC0A4E5B0E0E4E5F0E095
:1018400080818F7B8C93A4E5B0E0E4E5F0E08081BB
:10185000282F8A81882F90E08170907000249695BF
:1018600087950794969587950794982F802D822BBE
:101870008C930F900F900F900F90CF91DF91089560
:10188000DF93CF930F92CDB7DEB78983ABE5B0E09E
:10189000EBE5F0E08081482F8981282F30E081E05E
:1018A00090E0022E02C0880F991F0A94E2F78095FB
:1018B00084238C930F90CF91DF910895DF93CF9382
:1018C00000D000D00F92CDB7DEB79A8389836B83A7
:1018D0008B81282F30E03D832C838C819D81863045
:1018E000910559F02C813D812730310569F08C81BB
:1018F0009D818530910579F014C089819A819093FA
:10190000A2018093A1010DC089819A819093A401C5
:101910008093A30106C089819A819093A601809348
:10192000A5010F900F900F900F900F90CF91DF9126
:1019300008951F920F920FB60F9211242F933F9389
:101940004F935F936F937F938F939F93AF93BF93C7
:10195000EF93FF93DF93CF93CDB7DEB78091A101D3
:101960009091A201009729F0E091A101F091A201CC
:101970000995CF91DF91FF91EF91BF91AF919F9129
:101980008F917F916F915F914F913F912F910F9028
:101990000FBE0F901F9018951F920F920FB60F92C7
:1019A00011242F933F934F935F936F937F938F9364
:1019B0009F93AF93BF93EF93FF93DF93CF93CDB7F5
:1019C000DEB78091A3019091A401009729F0E091E6
:1019D000A301F091A4010995CF91DF91FF91EF91BF
:1019E000BF91AF919F918F917F916F915F914F9137
:1019F0003F912F910F900FBE0F901F9018951F923F
:101A00000F920FB60F9211242F933F934F935F9332
:101A10006F937F938F939F93AF93BF93EF93FF93B6
:101A2000DF93CF93CDB7DEB78091A5019091A6014A
:101A3000009729F0E091A501F091A6010995CF91B9
:101A4000DF91FF91EF91BF91AF919F918F917F9126
:101A50006F915F914F913F912F910F900FBE0F901B
:101A60001F901895DF93CF93CDB7DEB72A970FB6A7
:101A7000F894DEBF0FBECDBF8B836C838B819AE061
:101A8000692F0E94B31C8A838B819AE0692F0E9480
:101A9000B31C892F89838C81282F30E03A872987CE
:101AA00089859A85009739F029853A852130310555
:101AB00009F476C0E4C08A81282F30E038872F836C
:101AC0008F8198858230910561F12F81388523308F
:101AD000310534F48F8198858130910569F0CFC04C
:101AE0002F8138852330310589F18F8198858430A5
:101AF000910509F440C0C3C0AAE3B0E0EAE3F0E016
:101B00008081482F8981282F30E081E090E0022EEB
:101B100002C0880F991F0A94E2F7809584238C9362
:101B2000AEC0A7E3B0E0E7E3F0E08081482F898111
:101B3000282F30E081E090E0022E02C0880F991F2C
:101B40000A94E2F7809584238C9399C0A4E3B0E0D3
:101B5000E4E3F0E08081482F8981282F30E081E0A4
:101B600090E0022E02C0880F991F0A94E2F7809538
:101B700084238C9384C0A1E3B0E0E1E3F0E08081B2
:101B8000482F8981282F30E081E090E0022E02C0AA
:101B9000880F991F0A94E2F7809584238C936FC075
:101BA0008A81282F30E03E832D838D819E81823073
:101BB000910551F12D813E812330310534F48D8121
:101BC0009E818130910561F05AC02D813E81233084
:101BD000310571F18D819E8184309105E9F14FC00D
:101BE000AAE3B0E0EAE3F0E08081482F8981282F62
:101BF00030E081E090E0022E02C0880F991F0A9425
:101C0000E2F7842B8C933BC0A7E3B0E0E7E3F0E07E
:101C10008081482F8981282F30E081E090E0022EDA
:101C200002C0880F991F0A94E2F7842B8C9327C077
:101C3000A4E3B0E0E4E3F0E08081482F8981282F1D
:101C400030E081E090E0022E02C0880F991F0A94D4
:101C5000E2F7842B8C9313C0A1E3B0E0E1E3F0E062
:101C60008081482F8981282F30E081E090E0022E8A
:101C700002C0880F991F0A94E2F7842B8C932A964E
:101C80000FB6F894DEBF0FBECDBFCF91DF910895A0
:101C9000DF93CF93CDB7DEB72A970FB6F894DEBFA8
:101CA0000FBECDBF8B836C838B819AE0692F0E941E
:101CB000B31C8A838B819AE0692F0E94B31C892F01
:101CC00089838C81282F30E03A87298789859A85F6
:101CD000009739F029853A852130310509F476C01D
:101CE000E4C08A81282F30E038872F838F81988540
:101CF0008230910561F12F8138852330310534F42C
:101D00008F8198858130910569F0CFC02F8138850A
:101D10002330310589F18F8198858430910509F44C
:101D200040C0C3C0ABE3B0E0EBE3F0E08081482FFC
:101D30008981282F30E081E090E0022E02C0880FD8
:101D4000991F0A94E2F7809584238C93AEC0A8E390
:101D5000B0E0E8E3F0E08081482F8981282F30E06F
:101D600081E090E0022E02C0880F991F0A94E2F7EA
:101D7000809584238C9399C0A5E3B0E0E5E3F0E07F
:101D80008081482F8981282F30E081E090E0022E69
:101D900002C0880F991F0A94E2F7809584238C93E0
:101DA00084C0A2E3B0E0E2E3F0E08081482F8981C3
:101DB000282F30E081E090E0022E02C0880F991FAA
:101DC0000A94E2F7809584238C936FC08A81282F30
:101DD00030E03E832D838D819E818230910551F1CB
:101DE0002D813E812330310534F48D819E818130F7
:101DF000910561F05AC02D813E812330310571F18A
:101E00008D819E8184309105E9F14FC0ABE3B0E054
:101E1000EBE3F0E08081482F8981282F30E081E0DA
:101E200090E0022E02C0880F991F0A94E2F7842BDB
:101E30008C933BC0A8E3B0E0E8E3F0E08081482F5A
:101E40008981282F30E081E090E0022E02C0880FC7
:101E5000991F0A94E2F7842B8C9327C0A5E3B0E086
:101E6000E5E3F0E08081482F8981282F30E081E090
:101E700090E0022E02C0880F991F0A94E2F7842B8B
:101E80008C9313C0A2E3B0E0E2E3F0E08081482F3E
:101E90008981282F30E081E090E0022E02C0880F77
:101EA000991F0A94E2F7842B8C932A960FB6F89424
:101EB000DEBF0FBECDBFCF91DF910895DF93CF93EB
:101EC00000D000D00F92CDB7DEB78B838B819AE024
:101ED000692F0E94B31C8A838B819AE0692F0E942C
:101EE000B31C892F89838A81282F30E03D832C837E
:101EF0008C819D818230910551F12C813D8123306F
:101F0000310534F48C819D818130910561F05AC096
:101F10002C813D812330310571F18C819D8184308C
:101F20009105E9F14FC0ABE3B0E0EBE3F0E0808175
:101F3000482F8981282F30E081E090E0022E02C0F6
:101F4000880F991F0A94E2F784278C933BC0A8E37B
:101F5000B0E0E8E3F0E08081482F8981282F30E06D
:101F600081E090E0022E02C0880F991F0A94E2F7E8
:101F700084278C9327C0A5E3B0E0E5E3F0E08081FF
:101F8000482F8981282F30E081E090E0022E02C0A6
:101F9000880F991F0A94E2F784278C9313C0A2E359
:101FA000B0E0E2E3F0E08081482F8981282F30E023
:101FB00081E090E0022E02C0880F991F0A94E2F798
:101FC00084278C930F900F900F900F900F90CF91CC
:101FD000DF910895DF93CF9300D000D000D0CDB72C
:101FE000DEB78C831B828C819AE0692F0E94B31C20
:101FF0008A838C819AE0692F0E94B31C892F898380
:102000008A81282F30E03E832D834D815E814230CE
:10201000510541F18D819E818330910534F42D81EC
:102020003E812130310561F052C04D815E814330E7
:10203000510551F18D819E8184309105B9F147C0E0
:10204000E9E3F0E08081282F30E08981882F90E05B
:10205000A90102C0559547958A95E2F7CA0181709A
:102060008B8335C0E6E3F0E08081282F30E0898162
:10207000882F90E0A90102C0559547958A95E2F70F
:10208000CA0181708B8323C0E3E3F0E08081282FB5
:1020900030E08981882F90E0A90102C055954795CD
:1020A0008A95E2F7CA0181708B8311C0E0E3F0E00A
:1020B0008081282F30E08981882F90E0A90102C01B
:1020C000559547958A95E2F7CA0181708B838B817C
:1020D00026960FB6F894DEBF0FBECDBFCF91DF912D
:1020E0000895DF93CF9300D0CDB7DEB789836A839D
:1020F000A6E2B0E0E6E2F0E08081887F8C93A6E281
:10210000B0E0E6E2F0E090818981892B8C93A6E231
:10211000B0E0E6E2F0E08081877F8C93A7E2B0E058
:10212000E7E2F0E080818F7D8C93A6E2B0E0E6E20A
:10213000F0E080818F7D8C93A7E2B0E0E7E2F0E0F1
:1021400080818F738C93A7E2B0E0E7E2F0E08081BA
:10215000282F8A81882F90E00024969587950794F0
:10216000969587950794982F802D822B8C93A6E2C5
:10217000B0E0E6E2F0E0808180688C930F900F90F1
:10218000CF91DF910895DF93CF930F92CDB7DEB754
:102190008983A7E2B0E0E7E2F0E08081807E8C9363
:1021A000A7E2B0E0E7E2F0E090818981892B8C938F
:1021B000A6E2B0E0E6E2F0E0808180648C93E6E2A3
:1021C000F0E0808182958F70882F90E08170907010
:1021D0000097A9F3E4E2F0E0808191810F90CF9124
:1021E000DF910895DF93CF93CDB7DEB70E949A08B1
:1021F0000E94D20887E592E10E940A090E942709FD
:102200008EE260E00E94320D83E261E00E94320DB6
:10221000CF91DF910895DF93CF93CDB7DEB7A2972B
:102220000FB6F894DEBF0FBECDBF83E261E00E941F
:10223000480E80E090E0A0E2B1E48D8B9E8BAF8BE6
:10224000B88F6D897E898F89988D2BEA3AEA4AEAA0
:1022500050E40E941F02DC01CB01898B9A8BAB8B6F
:10226000BC8B69897A898B899C8920E030E040E8C1
:102270005FE30E94250488231CF481E0888B91C0D1
:1022800069897A898B899C8920E030E04FE753E4A3
:102290000E94C50318160CF07BC06D897E898F895A
:1022A000988D20E030E04AE754E40E941903DC01F5
:1022B000CB018C879D87AE87BF876C857D858E859A
:1022C0009F8520E030E04AE755E40E941F02DC01D0
:1022D000CB0188879987AA87BB87688579858A8596
:1022E0009B8520E030E040E85FE30E9425048823DE
:1022F0002CF481E090E09F838E833FC068857985D0
:102300008A859B8520E03FEF4FE757E40E94C50395
:1023100018164CF56C857D858E859F8520E030E014
:1023200040E251E40E941F02DC01CB01BC01CD015F
:102330000E944900DC01CB019F838E830FC080E99E
:1023400091E09D838C838C819D810197F1F79D8322
:102350008C838E819F8101979F838E838E819F8145
:10236000009769F724C0688579858A859B850E94D6
:102370004900DC01CB019F838E838E819F819B83EB
:102380008A838A819B810197F1F79B838A830FC09F
:1023900069897A898B899C890E944900DC01CB017B
:1023A000888B8889898389818A95F1F7898383E27B
:1023B00060E00E94480E8091AB018230E0F3109201
:1023C000AB012091A9013091AA018091A7019091C0
:1023D000A801A901481B590BCA01CC01A0E0B0E03B
:1023E0008F8F98A3A9A3BAA38F8D98A1A9A1BAA1F1
:1023F000880F991FAA1FBB1F880F991FAA1FBB1FF9
:10240000880F991FAA1FBB1F880F991FAA1FBB1FE8
:10241000BC01CD010E94A904DC01CB01BC01CD01AE
:1024200020E034E244E759E40E941903DC01CB01C7
:102430008B8F9C8FAD8FBE8F6B8D7C8D8D8D9E8D88
:1024400020E030E040E050E40E941903DC01CB01C1
:10245000BC01CD0120E03CEF45E057E40E941F02A3
:10246000DC01CB01BC01CD010E945A1DDC01CB0176
:10247000BC01CD010E944900DC01CB019A8F898FFC
:10248000898D9A8DA2960FB6F894DEBF0FBECDBF90
:10249000CF91DF910895DF93CF93CDB7DEB781E081
:1024A0000E94E0080E942709CF91DF910895DF93F1
:1024B000CF93CDB7DEB78091AB01882351F40E9452
:1024C0001C099093A8018093A70180E00E94E00876
:1024D0000CC08091AB01813041F40E941C099093A3
:1024E000AA018093A9010E9435098091AB018F5FF9
:1024F0008093AB01CF91DF910895DF93CF9300D00C
:102500000F92CDB7DEB789838981282F30E03B83D6
:102510002A838A819B818130910531F02A813B8118
:102520002230310531F009C082E261E00E94320DB3
:1025300004C081E261E00E94320D0F900F900F9075
:10254000CF91DF910895DF93CF9300D00F92CDB755
:10255000DEB789838981282F30E03B832A838A81F3
:102560009B818130910531F02A813B8122303105F8
:1025700031F009C082E261E00E94480E04C081E2AD
:1025800061E00E94480E0F900F900F90CF91DF9165
:102590000895DF93CF9300D00F92CDB7DEB7898334
:1025A0008981282F30E03B832A838A819B81813077
:1025B000910531F02A813B812230310531F009C08B
:1025C00082E260E00E94480E04C081E260E00E9466
:1025D000480E0F900F900F90CF91DF910895DF93E9
:1025E000CF9300D00F92CDB7DEB789838981282F92
:1025F00030E03B832A838A819B818130910531F0D1
:102600002A813B812230310529F007C082E20E94F5
:102610005E0F03C081E20E945E0F0F900F900F903B
:10262000CF91DF910895DF93CF9300D00F92CDB774
:10263000DEB789838981282F30E03B832A838A8112
:102640009B818130910571F02A813B8122303105D7
:1026500071F08A819B81009771F480E261E00E94B1
:10266000320D09C08FE161E00E94320D04C08EE19D
:1026700061E00E94320D0F900F900F90CF91DF918B
:102680000895DF93CF9300D00F92CDB7DEB7898343
:102690008981282F30E03B832A838A819B81813086
:1026A000910571F02A813B812230310571F08A81D8
:1026B0009B81009771F480E261E00E94480E09C09E
:1026C0008FE161E00E94480E04C08EE161E00E944B
:1026D000480E0F900F900F90CF91DF910895DF93E8
:1026E000CF9300D00F92CDB7DEB789838981282F91
:1026F00030E03B832A838A819B818130910571F090
:102700002A813B812230310571F08A819B810097BB
:1027100071F480E260E00E94480E09C08FE160E041
:102720000E94480E04C08EE160E00E94480E0F90A7
:102730000F900F90CF91DF910895DF93CF9300D04A
:102740000F92CDB7DEB789838981282F30E03B8394
:102750002A838A819B818130910569F02A813B819E
:102760002230310561F08A819B81009759F480E223
:102770000E945E0F07C08FE10E945E0F03C08EE1D2
:102780000E945E0F0F900F900F90CF91DF910895F0
:10279000DF93CF93CDB7DEB7AD970FB6F894DEBF1A
:1027A0000FBECDBF8BA78BA5282F30E03DA72CA750
:1027B0008CA59DA58130910509F486C02CA53DA569
:1027C0002230310509F4FBC08CA59DA5009709F0C6
:1027D00070C180E261E00E94480E80E090E0A6E9CE
:1027E000B3E48FA398A7A9A7BAA76FA178A589A5D5
:1027F0009AA520E030E04AE755E40E941F02DC0180
:10280000CB018BA39CA3ADA3BEA36BA17CA18DA187
:102810009EA120E030E040E85FE30E942504882389
:102820002CF481E090E09AA389A33FC06BA17CA126
:102830008DA19EA120E03FEF4FE757E40E94C50322
:1028400018164CF56FA178A589A59AA520E030E06F
:1028500040E251E40E941F02DC01CB01BC01CD012A
:102860000E944900DC01CB019AA389A30FC080E933
:1028700091E098A38F8F8F8D98A10197F1F798A37E
:102880008F8F89A19AA101979AA389A389A19AA15F
:10289000009769F714C06BA17CA18DA19EA10E9435
:1028A0004900DC01CB019AA389A389A19AA19E8F3B
:1028B0008D8F8D8D9E8D0197F1F79E8F8D8F80E28C
:1028C00060E00E94480EF5C08FE161E00E94480E72
:1028D00080E090E0A6E9B3E4898F9A8FAB8FBC8F3C
:1028E000698D7A8D8B8D9C8D20E030E04AE755E430
:1028F0000E941F02DC01CB018D8B9E8BAF8BB88FAA
:102900006D897E898F89988D20E030E040E85FE313
:102910000E94250488232CF481E090E09C8B8B8B13
:102920003FC06D897E898F89988D20E03FEF4FE70A
:1029300057E40E94C50318164CF5698D7A8D8B8D6E
:102940009C8D20E030E040E251E40E941F02DC0157
:10295000CB01BC01CD010E944900DC01CB019C8B65
:102960008B8B0FC080E991E09A8B898B89899A893A
:102970000197F1F79A8B898B8B899C8901979C8BA6
:102980008B8B8B899C89009769F714C06D897E8930
:102990008F89988D0E944900DC01CB019C8B8B8B29
:1029A0008B899C89988B8F878F8598890197F1F700
:1029B000988B8F878FE160E00E94480E7AC08EE18D
:1029C00061E00E94480E80E090E0A6E9B3E48B87C6
:1029D0009C87AD87BE876B857C858D859E8520E035
:1029E00030E04AE755E40E941F02DC01CB018F83EF
:1029F0009887A987BA876F81788589859A8520E02D
:102A000030E040E85FE30E94250488232CF481E055
:102A100090E09E838D833FC06F81788589859A85FC
:102A200020E03FEF4FE757E40E94C50318164CF52E
:102A30006B857C858D859E8520E030E040E251E409
:102A40000E941F02DC01CB01BC01CD010E944900A4
:102A5000DC01CB019E838D830FC080E991E09C83D4
:102A60008B838B819C810197F1F79C838B838D8174
:102A70009E8101979E838D838D819E81009769F74A
:102A800014C06F81788589859A850E944900DC0190
:102A9000CB019E838D838D819E819A8389838981D9
:102AA0009A810197F1F79A8389838EE160E00E9411
:102AB000480EAD960FB6F894DEBF0FBECDBFCF91D6
:102AC000DF910895DF93CF93CDB7DEB7AA970FB606
:102AD000F894DEBF0FBECDBF8BE061E00E94320DE7
:102AE0008CE061E00E94320D80E161E00E94320DD5
:102AF0008FE061E00E94320D8EE061E00E94320DB5
:102B00008DE061E00E94320D80E090E0ACE0B2E444
:102B10008FA398A7A9A7BAA76FA178A589A59AA5F9
:102B200020E030E04AE755E40E941F02DC01CB01BF
:102B30008BA39CA3ADA3BEA36BA17CA18DA19EA1E1
:102B400020E030E040E85FE30E94250488232CF475
:102B500081E090E09AA389A33FC06BA17CA18DA1E5
:102B60009EA120E03FEF4FE757E40E94C5031816EF
:102B70004CF56FA178A589A59AA520E030E040E248
:102B800051E40E941F02DC01CB01BC01CD010E9477
:102B90004900DC01CB019AA389A30FC080E991E031
:102BA00098A38F8F8F8D98A10197F1F798A38F8F9E
:102BB00089A19AA101979AA389A389A19AA10097B3
:102BC00069F714C06BA17CA18DA19EA10E94490050
:102BD000DC01CB019AA389A389A19AA19E8F8D8F35
:102BE0008D8D9E8D0197F1F79E8F8D8F8BE060E02C
:102BF0000E94480E8CE060E00E94480E80E160E098
:102C00000E94480E8FE060E00E94480E8EE061E076
:102C10000E94480E8DE060E00E94480E8CE061E06A
:102C20000E94480E80E090E0A0E8BFE3898F9A8F71
:102C3000AB8FBC8F698D7A8D8B8D9C8D20E030E0C1
:102C40004AE755E40E941F02DC01CB018D8B9E8B6D
:102C5000AF8BB88F6D897E898F89988D20E030E0A9
:102C600040E85FE30E94250488232CF481E090E093
:102C70009C8B8B8B3FC06D897E898F89988D20E0DE
:102C80003FEF4FE757E40E94C50318164CF5698DD6
:102C90007A8D8B8D9C8D20E030E040E251E40E94E3
:102CA0001F02DC01CB01BC01CD010E944900DC0107
:102CB000CB019C8B8B8B0FC080E991E09A8B898B29
:102CC00089899A890197F1F79A8B898B8B899C89DD
:102CD00001979C8B8B8B8B899C89009769F714C01B
:102CE0006D897E898F89988D0E944900DC01CB0116
:102CF0009C8B8B8B8B899C89988B8F878F859889F0
:102D00000197F1F7988B8F878CE060E00E94480E66
:102D100080E090E0A0EFB1E48B879C87AD87BE8711
:102D20006B857C858D859E8520E030E04AE755E403
:102D30000E941F02DC01CB018F839887A987BA8785
:102D40006F81788589859A8520E030E040E85FE3EF
:102D50000E94250488232CF481E090E09E838D83DB
:102D60003FC06F81788589859A8520E03FEF4FE7E6
:102D700057E40E94C50318164CF56B857C858D853C
:102D80009E8520E030E040E251E40E941F02DC0119
:102D9000CB01BC01CD010E944900DC01CB019E8327
:102DA0008D830FC080E991E09C838B838B819C8114
:102DB0000197F1F79C838B838D819E8101979E8380
:102DC0008D838D819E81009769F714C06F8178850E
:102DD00089859A850E944900DC01CB019E838D8301
:102DE0008D819E819A83898389819A810197F1F7E8
:102DF0009A83898388E20E9420178EE00E94201720
:102E000081E00E94201786E00E942017AA960FB644
:102E1000F894DEBF0FBECDBFCF91DF910895DF9351
:102E2000CF930F92CDB7DEB789838BE061E00E942C
:102E3000480E89810E940A180F90CF91DF91089562
:102E4000DF93CF930F92CDB7DEB789838BE060E03D
:102E50000E94480E89810E940A180F90CF91DF913D
:102E60000895DF93CF9300D000D000D0CDB7DEB768
:102E70009E838D8319821A821B821C8215C0298130
:102E80003A818D819E81FC01E20FF31F80810E94B7
:102E90000F1789819A81AB81BC810196A11DB11D5B
:102EA00089839A83AB83BC8329813A818D819E81FA
:102EB000FC01E20FF31F8081882309F726960FB6E5
:102EC000F894DEBF0FBECDBFCF91DF9108950F9371
:102ED0001F93DF93CF93CDB7DEB72F970FB6F8943C
:102EE000DEBF0FBECDBF6C877D878E879F878C85A9
:102EF0009D85AE85BF850097A105B10521F480E3CE
:102F00000E940F1772C08C859D85AE85BF85BB233F
:102F100094F48DE20E940F178C859D85AE85BF8548
:102F2000B095A095909581959F4FAF4FBF4F8C87DF
:102F30009D87AE87BF8719828AE0FE013296DF0146
:102F4000982F1D929A95E9F72FC08981082F112794
:102F500007FD10958C859D85AE85BF852AE030E004
:102F600040E050E0BC01CD010E94D21CDC01CB014D
:102F7000282FCE010296FC01E00FF11F20838C85E3
:102F80009D85AE85BF852AE030E040E050E0BC0181
:102F9000CD010E94D21CDA01C9018C879D87AE87C2
:102FA000BF8789818F5F89838C859D85AE85BF852D
:102FB000181619061A061B0644F289818150898366
:102FC00011C08981282F332727FD3095CE01029625
:102FD000FC01E20FF31F8081805D0E940F17898141
:102FE000815089838981882364F72F960FB6F894DE
:102FF000DEBF0FBECDBFCF91DF911F910F9108951E
:10300000DF93CF93CDB7DEB781E00E942017CF9139
:10301000DF910895DF93CF93CDB7DEB7E9970FB671
:10302000F894DEBF0FBECDBF89AF8CE060E00E9498
:10303000480E89AD982F991F9927991F80E1692F14
:103040000E94480E89AD8295869586958370982F4B
:1030500091708FE0692F0E94480E89AD8295869508
:103060008770982F91708EE0692F0E94480E89AD6D
:1030700082958F70982F91708DE0692F0E94480E75
:103080008CE061E00E94480E80E090E0A0E8BFE3A1
:103090008DAB9EABAFABB8AF6DA97EA98FA998AD34
:1030A00020E030E04AE755E40E941F02DC01CB013A
:1030B00089AB9AABABABBCAB69A97AA98BA99CA92C
:1030C00020E030E040E85FE30E94250488232CF4F0
:1030D00081E090E098AB8FA73FC069A97AA98BA93E
:1030E0009CA920E03FEF4FE757E40E94C503181664
:1030F0004CF56DA97EA98FA998AD20E030E040E2A3
:1031000051E40E941F02DC01CB01BC01CD010E94F1
:103110004900DC01CB0198AB8FA70FC080E991E09B
:103120009EA78DA78DA59EA50197F1F79EA78DA7B8
:103130008FA598A9019798AB8FA78FA598A90097FD
:1031400069F714C069A97AA98BA99CA90E944900B2
:10315000DC01CB0198AB8FA78FA598A99CA78BA763
:103160008BA59CA50197F1F79CA78BA78CE060E04D
:103170000E94480E80E090E0A0EFB1E48FA398A7F2
:10318000A9A7BAA76FA178A589A59AA520E030E0E4
:103190004AE755E40E941F02DC01CB018BA39CA3EC
:1031A000ADA3BEA36BA17CA18DA19EA120E030E0C8
:1031B00040E85FE30E94250488232CF481E090E03E
:1031C0009AA389A33FC06BA17CA18DA19EA120E001
:1031D0003FEF4FE757E40E94C50318164CF56FA167
:1031E00078A589A59AA520E030E040E251E40E944C
:1031F0001F02DC01CB01BC01CD010E944900DC01B2
:10320000CB019AA389A30FC080E991E098A38F8F87
:103210008F8D98A10197F1F798A38F8F89A19AA11B
:1032200001979AA389A389A19AA1009769F714C06D
:103230006BA17CA18DA19EA10E944900DC01CB0164
:103240009AA389A389A19AA19E8F8D8F8D8D9E8D22
:103250000197F1F79E8F8D8F89AD8695869586951E
:10326000982F917080E1692F0E94480E89AD869554
:103270008695982F91708FE0692F0E94480E89AD36
:103280008695982F91708EE0692F0E94480E89AD27
:10329000982F91708DE0692F0E94480E8CE061E0BC
:1032A0000E94480E80E090E0A0E8BFE3898F9A8FEB
:1032B000AB8FBC8F698D7A8D8B8D9C8D20E030E03B
:1032C0004AE755E40E941F02DC01CB018D8B9E8BE7
:1032D000AF8BB88F6D897E898F89988D20E030E023
:1032E00040E85FE30E94250488232CF481E090E00D
:1032F0009C8B8B8B3FC06D897E898F89988D20E058
:103300003FEF4FE757E40E94C50318164CF5698D4F
:103310007A8D8B8D9C8D20E030E040E251E40E945C
:103320001F02DC01CB01BC01CD010E944900DC0180
:10333000CB019C8B8B8B0FC080E991E09A8B898BA2
:1033400089899A890197F1F79A8B898B8B899C8956
:1033500001979C8B8B8B8B899C89009769F714C094
:103360006D897E898F89988D0E944900DC01CB018F
:103370009C8B8B8B8B899C89988B8F878F85988969
:103380000197F1F7988B8F878CE060E00E94480EE0
:1033900080E090E0A0EFB1E48B879C87AD87BE878B
:1033A0006B857C858D859E8520E030E04AE755E47D
:1033B0000E941F02DC01CB018F839887A987BA87FF
:1033C0006F81788589859A8520E030E040E85FE369
:1033D0000E94250488232CF481E090E09E838D8355
:1033E0003FC06F81788589859A8520E03FEF4FE760
:1033F00057E40E94C50318164CF56B857C858D85B6
:103400009E8520E030E040E251E40E941F02DC0192
:10341000CB01BC01CD010E944900DC01CB019E83A0
:103420008D830FC080E991E09C838B838B819C818D
:103430000197F1F79C838B838D819E8101979E83F9
:103440008D838D819E81009769F714C06F81788587
:1034500089859A850E944900DC01CB019E838D837A
:103460008D819E819A83898389819A810197F1F761
:103470009A838983E9960FB6F894DEBF0FBECDBF5D
:10348000CF91DF910895DF93CF9300D0CDB7DEB712
:1034900089836A838A81803178F48981882329F439
:1034A0008A8180580E94201707C08981813021F4C9
:1034B0008A8180540E9420170F900F90CF91DF9146
:1034C0000895DF93CF93CDB7DEB70E941707CF9152
:1034D000DF910895DF93CF9300D0CDB7DEB79A8305
:1034E000898389819A810E94CA070F900F90CF919A
:1034F000DF910895DF93CF93CDB7DEB7A5970FB6D1
:10350000F894DEBF0FBECDBF0E94F2100E9462157C
:103510000E94B60B84E48E8F1D8E80E062E00E94D4
:10352000431A80E690E00E94311780E067E00E9435
:10353000431A8E8D0E940F1781E064E00E94431AA7
:1035400087E690E00E94311782E00E94131381E029
:103550000E94131380E00E94131381E00E947D12E9
:103560000E94611A81E067E00E94431A8CE690E0B5
:103570000E943117CE0181960E946A1A89A1282FD4
:1035800030E03DA32CA38CA19DA18734910549F186
:103590002CA13DA1283431059CF48CA19DA183343C
:1035A000910509F48EC12CA13DA12634310509F401
:1035B00079C08CA19DA18234910509F45BC0D2CF62
:1035C0002CA13DA122353105C9F18CA19DA18735E2
:1035D000910509F47FC02CA13DA12C343105E1F106
:1035E000C1CF8AA1882359F481E00E94411380E071
:1035F0000E946F1382E00E946F131D8EB3CF8AA1C9
:103600008C3461F480E00E94411381E00E944113F8
:1036100082E00E946F1381E08D8FA4CF8AA1823552
:1036200009F0A0CF82E00E94411381E00E94411383
:1036300080E00E946F1381E08D8F94CF8D8D882361
:1036400009F090CF82E00E94411380E00E946F1346
:1036500081E00E946F1386CF8D8D882309F082CF81
:1036600080E00E94411382E00E946F1381E00E947B
:103670006F1378CF8D8D882309F074CF80E067E0D9
:103680000E94431A80E20E940F1782E50E940F17E2
:1036900082E00E946F1381E00E946F1380E00E941D
:1036A0006F1360CF8D8D882309F05CCF80E067E0D9
:1036B0000E94431A80E20E940F1784E40E940F17B1
:1036C00082E00E946F1381E00E946F1380E00E94ED
:1036D0006F1348CF8D8D882309F044CF81E00E947D
:1036E000A31280E090E0AAE7B4E4898F9A8FAB8FB1
:1036F000BC8F698D7A8D8B8D9C8D20E030E04AE700
:1037000055E40E941F02DC01CB018D8B9E8BAF8B99
:10371000B88F6D897E898F89988D20E030E040E8F0
:103720005FE30E94250488232CF481E090E09C8BC9
:103730008B8B3FC06D897E898F89988D20E03FEF0C
:103740004FE757E40E94C50318164CF5698D7A8D32
:103750008B8D9C8D20E030E040E251E40E941F02FE
:10376000DC01CB01BC01CD010E944900DC01CB0191
:103770009C8B8B8B0FC080E991E09A8B898B898918
:103780009A890197F1F79A8B898B8B899C8901978C
:103790009C8B8B8B8B899C89009769F714C06D89F2
:1037A0007E898F89988D0E944900DC01CB019C8B1A
:1037B0008B8B8B899C89988B8F878F8598890197B4
:1037C000F1F7988B8F8781E00E94C91280E090E02A
:1037D000AAE7B4E48B879C87AD87BE876B857C8521
:1037E0008D859E8520E030E04AE755E40E941F0267
:1037F000DC01CB018F839887A987BA876F81788591
:1038000089859A8520E030E040E85FE30E94250446
:1038100088232CF481E090E09E838D833FC06F81EC
:10382000788589859A8520E03FEF4FE757E40E942D
:10383000C50318164CF56B857C858D859E8520E02B
:1038400030E040E251E40E941F02DC01CB01BC01E8
:10385000CD010E944900DC01CB019E838D830FC006
:1038600080E991E09C838B838B819C810197F1F7A8
:103870009C838B838D819E8101979E838D838D8117
:103880009E81009769F714C06F81788589859A8534
:103890000E944900DC01CB019E838D838D819E8136
:1038A0009A83898389819A810197F1F79A83898321
:1038B000CE0181960E946A1A89A1873509F00ECF40
:1038C00051CE81E067E00E94431A80E790E00E94B9
:1038D000311781E067E00E94431A84E790E00E947C
:1038E00031170E940B1198A38F8F8F8D98A185316E
:1038F000910520F081E00E94411308C08F8D98A1AE
:103900008531910518F481E00E946F130E944B12DB
:10391000CE0181960E946A1A89A1823409F422CECE
:1039200089A18734F1F61ECE629FD001739FF0010A
:10393000829FE00DF11D649FE00DF11D929FF00D3F
:10394000839FF00D749FF00D659FF00D9927729F76
:10395000B00DE11DF91F639FB00DE11DF91FBD0101
:10396000CF0111240895991B79E004C0991F96177F
:1039700008F0961B881F7A95C9F78095089597FBE4
:10398000092E07260AD077FD04D027D006D00020C4
:103990001AF4709561957F4F0895F6F7909581958B
:1039A0009F4F089597FB092E05260ED057FD04D092
:1039B00028D00AD0001C38F45095409530952195B8
:1039C0003F4F4F4F5F4F0895F6F790958095709554
:1039D00061957F4F8F4F9F4F0895AA1BBB1B51E1ED
:1039E00007C0AA1FBB1FA617B70710F0A61BB70B6F
:1039F000881F991F5A95A9F780959095BC01CD0114
:103A00000895A1E21A2EAA1BBB1BFD010DC0AA1F1F
:103A1000BB1FEE1FFF1FA217B307E407F50720F037
:103A2000A21BB30BE40BF50B661F771F881F991FB2
:103A30001A9469F760957095809590959B01AC01FB
:103A4000BD01CF0108952F923F924F925F926F92E6
:103A50007F928F929F92AF92BF92CF92DF92EF921E
:103A6000FF920F931F93CF93DF93CDB7DEB7CA1B9F
:103A7000DB0B0FB6F894DEBF0FBECDBF09942A88CA
:103A8000398848885F846E847D848C849B84AA8472
:103A9000B984C884DF80EE80FD800C811B81AA81FF
:103AA000B981CE0FD11D0FB6F894DEBF0FBECDBFCA
:103AB000ED0108953BD080F09F3740F491110EF452
:103AC0004DC060E070E080E89FE3089526F01B168B
:103AD000611D711D811D01C01BC0882371F47723F6
:103AE00021F09850872B762F07C0662311F4992771
:103AF0000DC09051862B70E060E02AF09A95660F19
:103B0000771F881FDAF7880F9695879597F908959C
:103B10009F3F31F0915020F4879577956795B79541
:103B2000880F911D9695879597F9089525D0A0F057
:103B3000BEE7B91788F4BB279F3860F41616B11D8D
:103B4000672F782F8827985FF7CF869577956795A9
:103B5000B11D93959639C8F30895E894BB2766275D
:103B60007727CB0197F9089557FD9058440F551FBB
:103B700059F05F3F71F04795880F97FB991F61F0EF
:103B80009F3F79F087950895121613061406551F66
:103B9000F2CF4695F1DF08C0161617061806991FD2
:103BA000F1CF86957105610508940895F894FFCFCB
:103BB0004D4F44453A200043433A20004F464600CB
:103BC000202020004F4E00000000000000000000F8
:103BD00001020203030303040404040404040405AF
:103BE0000505050505050505050505050505050684
:103BF0000606060606060606060606060606060665
:103C00000606060606060606060606060606060753
:103C10000707070707070707070707070707070734
:103C20000707070707070707070707070707070724
:103C30000707070707070707070707070707070714
:103C40000707070707070707070707070707070803
:103C500008080808080808080808080808080808E4
:103C600008080808080808080808080808080808D4
:103C700008080808080808080808080808080808C4
:103C800008080808080808080808080808080808B4
:103C900008080808080808080808080808080808A4
:103CA0000808080808080808080808080808080894
:103CB0000808080808080808080808080808080884
:103CC000080808080808080808080808080808017B
:0A3CD000000800400000010004009D
:00000001FF
